:1000000028C04CC097C14AC049C08EC347C046C033
:1000100045C044C043C042C041C040C03FC00102CF
:100020000000040000000000010204081020200469
:100030001008020202020202020202020000000094
:1000400036000000000038000000000037006400A7
:100050006F0011241FBECFE5D2E0DEBFCDBF10E0A0
:10006000A0E6B0E0E2E3F1E102C005900D92A8380D
:10007000B107D9F720E0A8E8B0E001C01D92AF3F7A
:10008000B207E1F710E0C0E5D0E003C02297FE011F
:10009000D2D5CE34D107D1F74CD53FC8B1CF60E02F
:1000A00087E0C0D260E083E0BDD261E084E0BAD2F4
:1000B00040E855E260E070E088E890E037D264E61E
:1000C00070E080E090E09EC367E770E087EA90E030
:1000D00041D420E044E063E088E890E0F9C188E89A
:1000E00090E0A2D187EA90E0CEC3CF93DF9300D017
:1000F00000D000D0CDB7DEB766E670E088E890E0CB
:1001000008D588E890E0B2D0892BD1F087E0F8D20A
:100110004AE0BC01CE0101965DD4BE016F5F7F4F06
:1001200087EA90E02CD4CE010196ADD367EA70E067
:1001300088E890E0DED468EE73E080E090E062D37F
:1001400026960FB6F894DEBF0FBECDBFDF91CF91DC
:1001500008952091EF003091F00028173907B9F485
:100160009091AD008091AE00981789F0E091AD00BC
:10017000F0E0E155FF4F80812091AD0030E02F5F2E
:100180003F4F2F7333272093AD0090E008958FEFFA
:100190009FEF08951F93CF93DF93DC015C968D91C1
:1001A0009C915D97009749F481E090E013969C93B1
:1001B0008E93129780E090E03BC05196ED91FC91B8
:1001C000529750962C915097322F30951FB75E96CC
:1001D0004C915E9741FB772770F941FD6095F8944B
:1001E0004081772311F0422B01C043234083EC016F
:1001F0002197F1F748E0508160FF02C0522B01C007
:1002000053235083EC012197F1F76695415099F7FC
:100210008081772311F0832301C0822B80831FBF4D
:100220005C968D919C915D970197F1F781E090E04C
:10023000DF91CF911F9108952091EF003091F00050
:100240002817390781F49091AD008091AE0098177E
:1002500051F0E091AD00F0E0E155FF4F808199272A
:1002600087FD909508958FEF9FEF08952091EF00FF
:100270003091F0002817390769F48091AE00209181
:10028000AD0090E0805C9F4F821B910960E470E0BC
:100290006BD4089580E090E008952091EF003091B4
:1002A000F0002817390739F48FB7F8941092AE0090
:1002B0001092AD008FBF0895E091EF00F091F00033
:1002C000E817F90769F4A389B4899C918589809519
:1002D00089238C931092F0001092EF0081E0089532
:1002E00080E00895CF93DF93EC018A8D9B8D892B5D
:1002F000E9F08091EF009091F0008C179D07B1F02C
:10030000009709F0D9DF8E8D8E7F8E8F1092AE0010
:100310001092AD00D093F000C093EF00EB89FC8900
:1003200080819D89892B808381E001C080E0DF91FD
:10033000CF9108951F920F920FB60F9211242F9311
:100340003F934F935F936F937F938F939F93AF935D
:10035000BF93EF93FF93E091EF00F091F00030979F
:1003600009F451C0868DA685B785958581FF04C0A7
:100370008C91892329F447C08C91892309F043C0CB
:10038000A389B4899C918589809589238C938689DA
:1003900097890197F1F7208D318DA685B7857585F1
:1003A00058E040E0C9010197F1F7842F90E095955E
:1003B0008795482F6C91672309F04068515091F759
:1003C000868D81FD40958091AE0090E001968F73FF
:1003D00099272091AD00281749F0A091AE00B0E018
:1003E000A155BF4F4C938093AE0003C0868D8160B2
:1003F000868F828D938D0197F1F7A389B4898C91B3
:100400009589892B8C93FF91EF91BF91AF919F912B
:100410008F917F916F915F914F913F912F910F90AD
:100420000FBE0F901F9018952CE730E0FC01318330
:10043000208342CF1F93CF93DF93EC01162F6E8D55
:100440006695617081E06827812F25D161E0812F59
:10045000E9D0812F90E0FC01E85DFF4FE491E88B4B
:10046000FC01EE5CFF4FE491F0E0EE0FFF1FEE5B4E
:10047000FF4F859194919A8B898BDF91CF911F913A
:1004800008951F93CF93DF93EC01162F60E0812F27
:10049000C9D08E8D81FD03C061E0812FFCD01C8707
:1004A000812F90E0FC01E85DFF4FE491ED87FC01B6
:1004B000EE5CFF4FE491F0E0EE0FFF1FE45CFF4FB6
:1004C000859194919F878E87DF91CF911F91089599
:1004D000FF920F931F93CF93DF93EC01F62E522FD1
:1004E0001B821A8208EE13E020E030E00C831D83AB
:1004F0002E833F838CE790E0998388831F8A1E8A2E
:10050000198E188E1B8E1A8E1D8E1C8E8E8D8E7FD0
:1005100050FB81F98E8F642FCE018CDF6F2DCE01C1
:10052000DF91CF911F910F91FF90ABCFCF93DF93CE
:10053000EC019A01AB011B8E1A8E198E188E1F8A40
:100540001E8A60E874E88EE190E043D3C90124304C
:10055000310520F0B9016350710902C061E070E01B
:100560007D8F6C8F6C85653008F03EC0B901769543
:1005700067956431710518F06351710902C061E03B
:1005800070E07F8B6E8B069718F0C901059702C04B
:1005900081E090E0998F888FC90163E070E0D3D249
:1005A00096958795969587958D30910510F00C97C7
:1005B00002C081E090E09B8F8A8F8BB780628BBFF7
:1005C0002C85253018F485E390E002C080E090E0AF
:1005D0009C8B8B8B81E001C0880F2A95EAF78D8B6D
:1005E0008C8D9D8D0197F1F7CE01DF91CF917ACE61
:1005F000823081F018F4813051F00895833019F081
:10060000843009F008958CB58F7D8CBD08958AB52E
:100610008F7702C08AB58F7D8ABD08958CB58064BE
:100620008CBD0895CF93DF9390E0FC01E85DFF4F10
:100630002491FC01EE5CFF4F8491882349F190E006
:10064000880F991FFC01E85BFF4FA591B4918E5B69
:100650009F4FFC01C591D4919FB7611108C0F894D8
:100660008C91209582238C93888182230AC06230EA
:1006700051F4F8948C91322F309583238C93888198
:10068000822B888304C0F8948C91822B8C939FBF1B
:10069000DF91CF9108950F931F93CF93DF931F9214
:1006A000CDB7DEB7282F30E0F901E25EFF4F84912D
:1006B000F901E85DFF4F1491F901EE5CFF4F0491E1
:1006C0000023C1F0882319F0698392DF6981E02F4C
:1006D000F0E0EE0FFF1FEE5BFF4FA591B4919FB7C7
:1006E000F8948C91611103C01095812301C0812B76
:1006F0008C939FBF0F90DF91CF911F910F91089521
:10070000863008F0865087709091F1009295990F8D
:10071000990F907C982B97B9369A3699FECF84B171
:1007200025B190E0922B08951F920F920FB60F9271
:1007300011242F933F938F939F93AF93BF938091F7
:10074000F3009091F400A091F500B091F600309183
:10075000F20026E0230F2D3720F40296A11DB11DD3
:1007600005C029E8230F0396A11DB11D2093F200B7
:100770008093F3009093F400A093F500B093F600FB
:100780008091F7009091F800A091F900B091FA00E3
:100790000196A11DB11D8093F7009093F800A093DE
:1007A000F900B093FA00BF91AF919F918F913F9163
:1007B0002F910F900FBE0F901F9018953FB7F89490
:1007C0008091F7009091F800A091F900B091FA00A3
:1007D00022B708B601FE05C02F3F19F00196A11DF2
:1007E000B11D3FBF6627782F892F9A2F620F711D89
:1007F000811D911D43E0660F771F881F991F4A9541
:10080000D1F70895CF92DF92EF92FF92CF93DF93CB
:100810006B017C01D3DFEB01C114D104E104F104CD
:1008200079F030D0CBDF6C1B7D0B683E7340A0F3BA
:1008300081E0C81AD108E108F108C851DC4FECCFBB
:10084000DF91CF91FF90EF90DF90CF900895789453
:100850008AB582608ABD8AB581608ABD83B78260AD
:1008600083BF83B7816083BF89B7826089BF80B748
:10087000826080BF80B7816080BF329A319A309A9F
:10088000379A08950895FC018081918170C2CF93B9
:10089000DF93EC0188819981009709F068D2198271
:1008A00018821D821C821B821A82DF91CF910895CB
:1008B0000F931F93CF93DF93EC018B016F5F7F4FFB
:1008C00088819981E3D2009731F0998388831B83D3
:1008D0000A8381E001C080E0DF91CF911F910F91E9
:1008E0000895CF93DF93EC0188819981892B29F0BA
:1008F0008A819B818617970758F4CE01D9DF882318
:1009000041F08C819D81892B19F4E881F981108255
:1009100081E0DF91CF910895EF92FF920F931F93A3
:10092000CF93DF93EC017B018A01BA01DADF8111F9
:1009300003C0CE01ACDF06C01D830C83B7018881E4
:10094000998170D3CE01DF91CF911F910F91FF90CC
:10095000EF900895FC011182108213821282158299
:1009600014826115710551F0FB0101900020E9F737
:10097000AF0141505109461B570BCECF0895CF937D
:10098000DF93EC01FB018617970751F060817181BD
:100990006115710521F044815581BEDF01C077DF0B
:1009A000CE01DF91CF910895CF93DF93EC016115D4
:1009B000710559F0FB0101900020E9F7AF014150AA
:1009C0005109461B570BA8DF01C061DFCE01DF9143
:1009D000CF9108950F931F93CF93DF93CDB7DEB7D9
:1009E00062970FB6F894DEBF0FBECDBF8C01CB016E
:1009F000F80111821082138212821582148250E053
:100A0000BE016F5F7F4F15D3BE016F5F7F4FC8017F
:100A1000CBDF62960FB6F894DEBF0FBECDBFDF917D
:100A2000CF911F910F910895CF92DF92EF92FF9295
:100A30000F931F93CF93DF936C017A01EB01E60EC6
:100A4000F71E00E010E0CE15DF0561F06991D601D8
:100A5000ED91FC910190F081E02DC6010995080F00
:100A6000191FF1CFC801DF91CF911F910F91FF9016
:100A7000EF90DF90CF9008956115710581F0DB0153
:100A80000D900020E9F7AD0141505109461B570B6D
:100A9000DC01ED91FC910280F381E02D099480E06E
:100AA00090E00895DC01ED91FC91DB0114964D91ED
:100AB0005C9115976D917C910280F381E02D0994F2
:100AC000DC01ED91FC910190F081E02D09940F93F0
:100AD0001F93CF93DF93EC016DE0F2DF8C016AE0AE
:100AE000CE01EEDF800F911FDF91CF911F910F910B
:100AF00008950F931F93CF93DF93EC01D3DF8C0105
:100B0000CE01E5DF800F911FDF91CF911F910F91F3
:100B100008950F931F93CF93DF93EC01ADDF8C010A
:100B2000CE01D5DF800F911FDF91CF911F910F91E3
:100B300008958DDE73DDB3DAC0E0D0E0D6DA209719
:100B4000E9F35EDAFBCF0024552704C0080E591FD5
:100B5000880F991F009729F076956795B8F371056E
:100B6000B9F7802D952F089597FB072E16F4009462
:100B700006D077FD08D049D007FC05D03EF490950B
:100B800081959F4F0895709561957F4F0895A1E2DB
:100B90001A2EAA1BBB1BFD010DC0AA1FBB1FEE1FF7
:100BA000FF1FA217B307E407F50720F0A21BB30B42
:100BB000E40BF50B661F771F881F991F1A9469F7BE
:100BC00060957095809590959B01AC01BD01CF011A
:100BD0000895052E97FB16F400940FD057FD05D00D
:100BE000D6DF07FC02D046F408C0509540953095FA
:100BF00021953F4F4F4F5F4F089590958095709589
:100C000061957F4F8F4F9F4F0895AA1BBB1B51E1EA
:100C100007C0AA1FBB1FA617B70710F0A61BB70B6C
:100C2000881F991F5A95A9F780959095BC01CD0111
:100C30000895EE0FFF1F0590F491E02D0994CF93D6
:100C4000DF938230910510F482E090E0E091FD00A6
:100C5000F091FE0020E030E0A0E0B0E0309739F104
:100C60004081518148175907B8F04817590771F466
:100C700082819381109729F013969C938E931297FB
:100C80002CC09093FE008093FD0027C021153105F4
:100C900031F04217530718F0A901DB0101C0EF0141
:100CA0009A01BD01DF010280F381E02DD7CF21152C
:100CB0003105F9F0281B390B2430310580F48A8185
:100CC0009B816115710521F0FB019383828304C030
:100CD0009093FE008093FD00FE01329644C0FE0119
:100CE000E20FF31F819391932250310939832883B6
:100CF0003AC02091FB003091FC00232B41F420915D
:100D00006200309163003093FC002093FB0020913F
:100D10006000309161002115310541F42DB73EB7D7
:100D20004091640050916500241B350BE091FB005D
:100D3000F091FC00E217F307A0F42E1B3F0B2817DD
:100D4000390778F0AC014E5F5F4F2417350748F044
:100D50004E0F5F1F5093FC004093FB0081939193D3
:100D600002C0E0E0F0E0CF01DF91CF910895CF9392
:100D7000DF93009709F487C0FC0132971382128237
:100D8000C091FD00D091FE00209781F42081318137
:100D9000280F391F8091FB009091FC008217930768
:100DA00079F5F093FC00E093FB006DC0DE0120E0DC
:100DB00030E0AE17BF0750F412964D915C91139737
:100DC0009D014115510509F1DA01F3CFB383A283E7
:100DD00040815181840F951F8A179B0771F48D9173
:100DE0009C911197840F951F029691838083129690
:100DF0008D919C911397938382832115310529F45A
:100E0000F093FE00E093FD003EC0D9011396FC93E1
:100E1000EE9312974D915D91A40FB51FEA17FB0752
:100E200079F480819181840F951F0296D9011196E2
:100E30009C938E938281938113969C938E931297A9
:100E4000E0E0F0E08A819B81009719F0FE01EC015F
:100E5000F9CFCE01029628813981820F931F20910C
:100E6000FB003091FC002817390769F4309729F40A
:100E70001092FE001092FD0002C013821282D093E5
:100E8000FC00C093FB00DF91CF910895A0E0B0E09B
:100E9000EBE4F7E00FC1EC01CB01209711F4CFDEBA
:100EA000B4C0FE01E60FF71F9E0122503109E21780
:100EB000F30708F4A8C0D9010D911C9111970617EA
:100EC0001707B0F00530110508F49BC0A801445085
:100ED00051094617570708F494C002501109061B20
:100EE000170B019311936D937C93CF0140DF89C061
:100EF0005B01A01AB10A4E01800E911EA091FD0067
:100F0000B091FE00612C712C60E070E0109709F444
:100F100049C0A815B905C9F5ED90FC901197670176
:100F200042E0C40ED11CCA14DB0478F147018A18D0
:100F30009B08640142E0C40ED11C1296BC9012972B
:100F40001396AC91B5E0CB16D10440F0B282A383E6
:100F500091828082D9018D939C9309C00E5F1F4FAF
:100F60000E0D1F1DF90111830083EB2DFA2F611562
:100F7000710531F0DB011396FC93EE93129741C09B
:100F8000F093FE00E093FD003CC06D917C911197C1
:100F90006616770608F43B01BD0112960D90BC91D0
:100FA000A02DB4CF6091FB007091FC00681579050D
:100FB000E9F468167906D0F4409160005091610020
:100FC0004115510541F44DB75EB7609164007091D1
:100FD0006500461B570BE417F507A8F4F093FC00D7
:100FE000E093FB00F901918380830BC028DE7C0134
:100FF000009749F0A801BE010CD0CE01B8DEC701B0
:1010000004C0CE0102C080E090E0CDB7DEB7EEE0D4
:101010006DC0FB01DC0102C001900D9241505040B7
:10102000D8F70895FB01DC0101900D920020E1F753
:1010300008954532510518F4423008F004C0FB0110
:101040001082CB010895BB274A3031F4992322F452
:10105000BDE2909581959F4F01C0BB27FB015527AD
:10106000AA27880F991FAA1FA41710F0A41B839505
:101070005051B9F7A05DAA3308F0A95DA19300977C
:1010800079F7B111B1931192CB0100C0DC01FC01E1
:10109000672F71917723E1F7329704C07C916D93AC
:1010A00070836291AE17BF07C8F308952F923F92E5
:1010B0004F925F926F927F928F929F92AF92BF9268
:1010C000CF92DF92EF92FF920F931F93CF93DF9314
:1010D000CDB7DEB7CA1BDB0B0FB6F894DEBF0FBE71
:1010E000CDBF09942A88398848885F846E847D84BE
:1010F0008C849B84AA84B984C884DF80EE80FD80C0
:101100000C811B81AA81B981CE0FD11D0FB6F89435
:10111000DEBF0FBECDBFED01089510E0C0E5D0E009
:1011200003C0FE0188DD2296C235D107D1F7F894BD
:02113000FFCFEF
:101132000000FF008000736F6C617250616E656C1D
:1011420054656E73696F6E0000000000CA001405DA
:081152003601A9001C014D014A
:00000001FF
