:1000000023C03DC03CC03BC03AC0DCC038C037C094
:1000100036C035C034C033C032C031C030C0010238
:100020000000040000000000010204081020200469
:100030001008020202020202020202020000000094
:10004000380000000000370011241FBECFE5D2E0C9
:10005000DEBFCDBF10E0A0E6B0E0EAE3F3E002C00F
:1000600005900D92A236B107D9F720E0A2E6B0E0E4
:1000700001C01D92AB36B207E1F753D15CC1C0CFCE
:1000800061E08091600030C0CF93DF93C0E6D0E0A4
:1000900061E0888162D06CE271E080E090E000D1A4
:1000A00060E088815AD062E370E080E090E0DF9108
:1000B000CF91F6C0823081F018F4813051F008956C
:1000C000833019F0843009F008958CB58F7D8CBD94
:1000D00008958AB58F7702C08AB58F7D8ABD08954D
:1000E0008CB580648CBD0895CF93DF9390E0FC01C4
:1000F000E85DFF4F2491FC01EE5CFF4F8491882363
:1001000049F190E0880F991FFC01EE5BFF4FA5912C
:10011000B491845C9F4FFC01C591D4919FB761114C
:1001200008C0F8948C91209582238C938881822337
:100130000AC0623051F4F8948C91322F30958323A9
:100140008C938881822B888304C0F8948C91822BB5
:100150008C939FBFDF91CF9108950F931F93CF93FF
:10016000DF931F92CDB7DEB7282F30E0F901E25EB2
:10017000FF4F8491F901E85DFF4F1491F901EE5CA6
:10018000FF4F04910023C1F0882319F0698392DFA7
:100190006981E02FF0E0EE0FFF1FE45CFF4FA591B7
:1001A000B4919FB7F8948C91611103C0109581238D
:1001B00001C0812B8C939FBF0F90DF91CF911F9136
:1001C0000F9108951F920F920FB60F9211242F9343
:1001D0003F938F939F93AF93BF93809163009091D0
:1001E0006400A0916500B09166003091620026E045
:1001F000230F2D3720F40296A11DB11D05C029E85B
:10020000230F0396A11DB11D20936200809363000C
:1002100090936400A0936500B0936600809167009E
:1002200090916800A0916900B0916A000196A11DAB
:10023000B11D8093670090936800A0936900B0930C
:100240006A00BF91AF919F918F913F912F910F9035
:100250000FBE0F901F9018953FB7F89480916700DC
:1002600090916800A0916900B0916A0022B708B629
:1002700001FE05C02F3F19F00196A11DB11D3FBF22
:100280006627782F892F9A2F620F711D811D911D6E
:1002900043E0660F771F881F991F4A95D1F708958D
:1002A000CF92DF92EF92FF92CF93DF936B017C01AD
:1002B000D3DFEB01C114D104E104F10479F030D0B3
:1002C000CBDF6C1B7D0B683E7340A0F381E0C81A46
:1002D000D108E108F108C851DC4FECCFDF91CF9194
:1002E000FF90EF90DF90CF90089578948AB5826068
:1002F0008ABD8AB581608ABD83B7826083BF83B7B8
:10030000816083BF89B7826089BF80B7826080BF08
:1003100080B7816080BF329A319A309A379A0895B7
:100320000895E3DFDDDEACDEC0E0D0E0ADDE209797
:0A033000E9F366DEFBCFF894FFCF7F
:02033A000300BE
:00000001FF
