:1000000028C04CC065C14AC049C05CC347C046C097
:1000100045C044C043C042C041C040C03FC00102CF
:100020000000040000000000010204081020200469
:100030001008020202020202020202020000000094
:1000400036000000000038000000000037006E009D
:10005000740011241FBECFE5D2E0DEBFCDBF10E09B
:10006000A0E6B0E0E0E7FBE002C005900D92A0370B
:10007000B107D9F720E0A0E7B0E001C01D92AF3D85
:10008000B207E1F710E0C0E5D0E003C02297FE011F
:100090005FD5CE34D107D1F7D0D45EC5B1CF60E003
:1000A00083E08ED261E084E08BD240E855E260E0EC
:1000B00070E080E790E008C285E0F0C2FDDF909339
:1000C000900080938F004AE050E0BC0180E790E010
:1000D0009ED464EF71E080E090E062C320E044E0F1
:1000E00063E080E790E0C2C180E790E06BC12091BF
:1000F000D3003091D40028173907B9F490919100BA
:1001000080919200981789F0E0919100F0E0ED560F
:10011000FF4F80812091910030E02F5F3F4F2F7380
:1001200033272093910090E008958FEF9FEF08957B
:100130001F93CF93DF93DC015C968D919C915D972B
:10014000009749F481E090E013969C938E93129768
:1001500080E090E03BC05196ED91FC915297509613
:100160002C915097322F30951FB75E964C915E9729
:1001700041FB772770F941FD6095F8944081772322
:1001800011F0422B01C043234083EC012197F1F78A
:1001900048E0508160FF02C0522B01C053235083BE
:1001A000EC012197F1F76695415099F7808177230B
:1001B00011F0832301C0822B80831FBF5C968D9139
:1001C0009C915D970197F1F781E090E0DF91CF91ED
:1001D0001F9108952091D3003091D400281739073A
:1001E00081F49091910080919200981751F0E091E4
:1001F0009100F0E0ED56FF4F8081992787FD9095A3
:1002000008958FEF9FEF08952091D3003091D4008F
:100210002817390769F4809192002091910090E0AD
:10022000805C9F4F821B910960E470E02AD408959E
:1002300080E090E008952091D3003091D4002817F9
:10024000390739F48FB7F894109292001092910008
:100250008FBF0895E091D300F091D400E817F9071B
:1002600069F4A389B4899C918589809589238C93AD
:100270001092D4001092D30081E0089580E0089598
:10028000CF93DF93EC018A8D9B8D892BE9F08091D0
:10029000D3009091D4008C179D07B1F0009709F01E
:1002A000D9DF8E8D8E7F8E8F1092920010929100EA
:1002B000D093D400C093D300EB89FC8980819D89C1
:1002C000892B808381E001C080E0DF91CF91089588
:1002D0001F920F920FB60F9211242F933F934F93BB
:1002E0005F936F937F938F939F93AF93BF93EF939E
:1002F000FF93E091D300F091D400309709F451C0FE
:10030000868DA685B785958581FF04C08C9189234C
:1003100029F447C08C91892309F043C0A389B4898B
:100320009C918589809589238C93868997890197EB
:10033000F1F7208D318DA685B785758558E040E0B1
:10034000C9010197F1F7842F90E095958795482F83
:100350006C91672309F04068515091F7868D81FDBB
:1003600040958091920090E001968F73992720919B
:100370009100281749F0A0919200B0E0AD56BF4F10
:100380004C938093920003C0868D8160868F828D0E
:10039000938D0197F1F7A389B4898C919589892B65
:1003A0008C93FF91EF91BF91AF919F918F917F912E
:1003B0006F915F914F913F912F910F900FBE0F90D2
:1003C0001F90189524E630E0FC013183208342CF52
:1003D0001F93CF93DF93EC01162F6E8D669561709E
:1003E00081E06827812F25D161E0812FE9D0812F1D
:1003F00090E0FC01E85DFF4FE491E88BFC01EE5CCE
:10040000FF4FE491F0E0EE0FFF1FEE5BFF4F859191
:1004100094919A8B898BDF91CF911F9108951F93AF
:10042000CF93DF93EC01162F60E0812FC9D08E8D22
:1004300081FD03C061E0812FFCD01C87812F90E0FB
:10044000FC01E85DFF4FE491ED87FC01EE5CFF4F9E
:10045000E491F0E0EE0FFF1FE45CFF4F8591949173
:100460009F878E87DF91CF911F910895FF920F9301
:100470001F93CF93DF93EC01F62E522F1B821A822B
:1004800008EE13E020E030E00C831D832E833F83D1
:1004900084E690E0998388831F8A1E8A198E188EBD
:1004A0001B8E1A8E1D8E1C8E8E8D8E7F50FB81F9B9
:1004B0008E8F642FCE018CDF6F2DCE01DF91CF9117
:1004C0001F910F91FF90ABCFCF93DF93EC019A0177
:1004D000AB011B8E1A8E198E188E1F8A1E8A60E839
:1004E00074E88EE190E002D3C9012430310520F098
:1004F000B9016350710902C061E070E07D8F6C8FBB
:100500006C85653008F03EC0B90176956795643119
:10051000710518F06351710902C061E070E07F8BD2
:100520006E8B069718F0C901059702C081E090E034
:10053000998F888FC90163E070E092D29695879574
:10054000969587958D30910510F00C9702C081E04B
:1005500090E09B8F8A8F8BB780628BBF2C85253074
:1005600018F485E390E002C080E090E09C8B8B8BD8
:1005700081E001C0880F2A95EAF78D8B8C8D9D8DC7
:100580000197F1F7CE01DF91CF917ACE823081F0E1
:1005900018F4813051F00895833019F0843009F057
:1005A00008958CB58F7D8CBD08958AB58F7702C074
:1005B0008AB58F7D8ABD08958CB580648CBD089501
:1005C000CF93DF9390E0FC01E85DFF4F2491FC01A5
:1005D000EE5CFF4F8491882349F190E0880F991FCA
:1005E000FC01E85BFF4FA591B4918E5B9F4FFC012E
:1005F000C591D4919FB7611108C0F8948C91209552
:1006000082238C93888182230AC0623051F4F8944B
:100610008C91322F309583238C938881822B888311
:1006200004C0F8948C91822B8C939FBFDF91CF9163
:1006300008950F931F93CF93DF931F92CDB7DEB72B
:10064000282F30E0F901E25EFF4F8491F901E85D67
:10065000FF4F1491F901EE5CFF4F04910023C1F0AC
:10066000882319F0698392DF6981E02FF0E0EE0FB3
:10067000FF1FEE5BFF4FA591B4919FB7F8948C914B
:10068000611103C01095812301C0812B8C939FBF02
:100690000F90DF91CF911F910F910895863008F050
:1006A000865087709091D5009295990F990F907C04
:1006B000982B97B9369A3699FECF84B125B190E040
:1006C000922B08951F920F920FB60F9211242F9321
:1006D0003F938F939F93AF93BF938091D700909157
:1006E000D800A091D900B091DA003091D60026E070
:1006F000230F2D3720F40296A11DB11D05C029E856
:10070000230F0396A11DB11D2093D6008093D7001F
:100710009093D800A093D900B093DA008091DB00C9
:100720009091DC00A091DD00B091DE000196A11D4A
:10073000B11D8093DB009093DC00A093DD00B093AB
:10074000DE00BF91AF919F918F913F912F910F90BC
:100750000FBE0F901F9018953FB7F8948091DB0063
:100760009091DC00A091DD00B091DE0022B708B6C8
:1007700001FE05C02F3F19F00196A11DB11D3FBF1D
:100780006627782F892F9A2F620F711D811D911D69
:1007900043E0660F771F881F991F4A95D1F7089588
:1007A000CF92DF92EF92FF92CF93DF936B017C01A8
:1007B000D3DFEB01C114D104E104F10479F030D0AE
:1007C000CBDF6C1B7D0B683E7340A0F381E0C81A41
:1007D000D108E108F108C851DC4FECCFDF91CF918F
:1007E000FF90EF90DF90CF90089578948AB5826063
:1007F0008ABD8AB581608ABD83B7826083BF83B7B3
:10080000816083BF89B7826089BF80B7826080BF03
:1008100080B7816080BF329A319A309A379A0895B2
:100820000895CF92DF92EF92FF920F931F93CF9391
:10083000DF936C017A01EB01E60EF71E00E010E099
:10084000CE15DF0561F06991D601ED91FC91019023
:10085000F081E02DC6010995080F191FF1CFC801DD
:10086000DF91CF911F910F91FF90EF90DF90CF908C
:1008700008956115710581F0DB010D900020E9F705
:10088000AD0141505109461B570BDC01ED91FC9124
:100890000280F381E02D099480E090E00895DC016E
:1008A000ED91FC910190F081E02D09940F931F933D
:1008B000CF93DF93EC016DE0F2DF8C016AE0CE01B3
:1008C000EEDF800F911FDF91CF911F910F9108955F
:1008D0008F929F92AF92BF92CF92DF92EF92FF9250
:1008E0000F931F93CF93DF93CDB7DEB7A1970FB6CA
:1008F000F894DEBF0FBECDBF7C01C42EE52FCB0127
:10090000D22E19A221E02D1510F02AE0D22E8E0150
:100910000F5D1F4F8D2C912CA12CB12C6C2D7E2F97
:10092000A5019401C1D08D2D622F91D0C81A8C2DB4
:10093000015011098A3014F4805D01C0895CF8010E
:100940008083211531054105510521F0C22EE32F89
:10095000CA01E4CFB801C7018CDFA1960FB6F894A5
:10096000DEBF0FBECDBFDF91CF911F910F91FF90E2
:10097000EF90DF90CF90BF90AF909F908F900895B1
:10098000CF92DF92EF92FF920F931F93CF93DF935B
:10099000EC016A017B012115310579F4E881F981C7
:1009A0000190F081E02D642FDF91CF911F910F9185
:1009B000FF90EF90DF90CF9009942A303105D9F461
:1009C00077FF18C06DE26BDF8C0144275527BA0111
:1009D0004C195D096E097F092AE0CE0179DF800F8D
:1009E000911FDF91CF911F910F91FF90EF90DF90BA
:1009F000CF9008952AE0B701A601CE01DF91CF91F3
:100A00001F910F91FF90EF90DF90CF9061CF0F93E8
:100A10001F93CF93DF93EC019A01AB01662757FD3B
:100A20006095762FADDF8C01CE0140DF800F911FE6
:100A3000DF91CF911F910F910895D7DEBDDD2FDBA0
:100A4000C0E0D0E03BDB2097E9F3DADAFBCF00240B
:100A500080FD060E660F11F08695D1F7802D089562
:100A60000024552704C0080E591F880F991F0097AE
:100A700029F076956795B8F37105B9F7802D952F14
:100A8000089597FB072E16F4009406D077FD08D042
:100A900049D007FC05D03EF4909581959F4F08956D
:100AA000709561957F4F0895A1E21A2EAA1BBB1B7A
:100AB000FD010DC0AA1FBB1FEE1FFF1FA217B3072A
:100AC000E407F50720F0A21BB30BE40BF50B661F40
:100AD000771F881F991F1A9469F760957095809504
:100AE00090959B01AC01BD01CF010895052E97FBA8
:100AF00016F400940FD057FD05D0D6DF07FC02D0C6
:100B000046F408C050954095309521953F4F4F4F82
:100B10005F4F089590958095709561957F4F8F4FA9
:100B20009F4F0895AA1BBB1B51E107C0AA1FBB1F03
:100B3000A617B70710F0A61BB70B881F991F5A9569
:100B4000A9F780959095BC01CD010895EE0FFF1F88
:100B50000590F491E02D099410E0C0E5D0E003C0C9
:100B6000FE01F6DF2296C235D107D1F7F894FFCF08
:100B7000000000009800110404017700EA001B0146
:00000001FF
